:100000000C942A000C9447000C9447000C94470071
:100010000C9447000C9447000C9484000C94470007
:100020000C9447000C9447000C9447000C94470034
:100030000C9447000C9447000C9447000C94470024
:100040000C9447000C9447000C9447000C94470014
:100050000C94470011241FBECFE5D8E0DEBFCDBF12
:1000600010E0A0E6B0E0EAEDF2E002C005900D92EB
:10007000A436B107D9F710E0A4E6B0E001C01D92A4
:10008000AE36B107E1F70E9468000C946B010C9446
:10009000000087B3837E87BBA29A08951ABA3D9A5F
:1000A0003E9A86B1856086B986B1806A86B980EE4F
:1000B00080BF089580EA8FBD81E18EBD80E289BF57
:1000C00017BC8FEF86BD81B3806381BB78940895A0
:1000D00087B3837E87BBA29A0E945A000E944E007B
:1000E000FFCF109267001092660080E797E190932F
:1000F000610080936000909363008093620010928F
:1001000069001092680008951F920F920FB60F9227
:1001100011242F933F934F935F938F939F9334B109
:1001200030936D0025B120936C00922F80E0232F37
:1001300030E0282B392B2050304830936B0020932F
:100140006A00B29B0FC08091660090916700019693
:100150009093670080936600049724F010926700E4
:1001600010926600809164009091650001969093D2
:100170006500809364008436910509F062C0109296
:10018000650010926400849B34C08091600090915F
:1001900061008C599F4F9093610080936000809123
:1001A0006200909163008C599F4F909363008093FD
:1001B00062008091680090916900803191052CF473
:1001C00001969093690080936800839B12C01092FF
:1001D00067001092660080E797E19093610080933A
:1001E0006000909363008093620010926900109207
:1001F0006800839B26C08091600090916100181672
:10020000190634F484569040909361008093600006
:1002100080916200909163001816190634F4845698
:100220009040909363008093620080916800909169
:100230006900181619062CF40197909369008093B1
:1002400068008091660090916700009781F181308D
:10025000910541F4809160009091610082179307AD
:1002600034F513C082309105A9F440916200509199
:100270006300421753073CF088279927841B950B8E
:1002800028173907A4F480E090E890936B008093DE
:100290006A000DC0039759F40090680002C0220F55
:1002A000331F0A94E2F730936B0020936A00209189
:1002B0006A0030916B00C9018050904898BD2ABDFA
:1002C0009F918F915F914F913F912F910F900FBE12
:0A02D0000F901F901895F894FFCFCF
:0402DA007017701712
:00000001FF
